:1000000096C00000B0C00000AEC00000ACC0000050
:10001000AAC00000A8C00000A6C00000A4C0000044
:10002000A2C00000A0C000009EC0000002C50000E9
:100030009AC0000098C0000096C0000094C0000064
:1000400092C0000090C00000B1C000008CC0000051
:100050008AC0000089C0000086C0000084C0000083
:1000600082C0000080C000007EC000007CC0000094
:100070007AC0000026034C005500460041002000D5
:100080004B006500790062006F006100720064003F
:100090002000440065006D006F000000180344005C
:1000A000650061006E002000430061006D00650086
:1000B000720061000000040309040902220001012A
:1000C00000C03209040000010301010009211101EF
:1000D00000012240000705810308000512011001FC
:1000E00000000008EB0342200100010200010501AD
:1000F0000906A101050719E029E715002501750189
:1001000095088102950175088101050819012905E5
:10011000950575019102950175039101150026FF62
:10012000000507190029FF950675088100C01124F4
:100130001FBECFEFD2E0DEBFCDBF11E0A0E0B1E047
:10014000E8EEF2E102C005900D92AC31B107D9F7AB
:1001500021E0ACE1B1E001C01D92A833B207E1F7A4
:1001600076D00C9472094CCF1F920F920FB60F925B
:1001700011248F939F93F8948091210190912201F3
:100180000196909322018093210105973CF081E034
:1001900080931E01109222011092210178949F9168
:1001A0008F910F900FBE0F901F9018951F920F9276
:1001B0000FB60F9211242F933F934F935F936F933A
:1001C0007F938F939F93AF93BF93EF93FF93F89495
:1001D00080911C0190911D010196883C91052CF4A1
:1001E00090931D0180931C0108C010921D01109274
:1001F0001C0180E091E081D71BD67894FF91EF91AC
:10020000BF91AF919F918F917F916F915F914F912E
:100210003F912F910F900FBE0F901F90189584B7AC
:10022000877F84BF0FB6F894A8958091600088619D
:1002300080936000109260000FBE90E080E80FB6DF
:10024000F89480936100909361000FBEE3C380E057
:1002500090E00E945C09811105C061E680E090E0B9
:100260000E946409DCDF85B5846085BD80916E00E5
:10027000816080936E008091810085608093810011
:1002800080916F00816080936F007894789480E013
:1002900091E033D7CDD510921D0110921C01F7CFFC
:1002A0000895089580E091E015D7E2EEF0E08081B6
:1002B00084608083089580E091E0D4C580910E0130
:1002C00090910F01009729F0019790930F0180936F
:1002D0000E0108950F931F93F90180911E01882349
:1002E00009F4EDC080911A018111E9C020911F012C
:1002F00030912001D901A05FBE4F8C912F5F3F4FFD
:100300003093200120931F012A30310518F021E09D
:1003100020931A0110921E012FEB280F2A3118F496
:100320008D538283CAC02FE9280F2A3110F48D55CE
:100330000DC02FEC280F293010F4835107C08C33E7
:1003400011F483EE03C08E3319F488E28283B7C0C0
:10035000803309F46DC0A0F5873209F479C0B8F490
:10036000833209F46CC058F4813209F463C008F098
:1003700064C0803209F09DC080E09CE29BC0853261
:1003800009F460C008F061C081E091E293C08B3253
:1003900009F467C040F4893209F45DC008F05EC01A
:1003A00081E096E287C08D3209F460C008F45CC039
:1003B0008E3209F45DC08F3209F07BC080E065C0E9
:1003C0008B3509F464C0B8F48D3309F45AC050F485
:1003D0008B3309F450C008F051C08A3309F069C06A
:1003E00081E04AC0803408F44FC0803409F061C015
:1003F00081E09FE15FC08F3509F450C038F48D353E
:1004000009F447C008F047C080E04EC08C3709F4BB
:100410004AC028F48B3709F04CC081E042C08D37C8
:1004200009F444C08E3709F044C081E092E342C031
:1004300080E012C081E09EE13DC081E00AC081E021
:1004400090E238C081E092E235C081E094E232C0AF
:1004500080E094E32FC081E097E22CC080E095E536
:1004600029C080E097E526C080E009C080E017C081
:1004700080E097E31FC080E093E31CC081E096E337
:1004800019C080E09EE216C081E098E313C080E0CE
:1004900008C080E00CC081E093E20CC081E09DE2E6
:1004A00009C09FE207C081E091E304C081E090E3CE
:1004B00001C080E09283882311F082E0808388E08D
:1004C00090E0F8019183808380E01F910F9108955F
:1004D000F901808181FF0FC0FFEF29E688E1F1502B
:1004E00020408040E1F700C0000010921A011092F5
:1004F000200110921F010895292F33272330310541
:10050000E1F05CF42130310599F02230310579F5C4
:1005100082E290E02AEB30E02EC02132310511F169
:100520002232310521F580E490E02EEE30E023C048
:1005300082E190E02CED30E01EC0992781309105DA
:1005400041F08230910541F0892B89F4E6EBF0E02F
:1005500005C0ECE9F0E002C0E4E7F0E0849190E04F
:100560009F0109C089E090E02CEC30E004C080E0FD
:1005700090E020E030E0FA01318320830895CF92AB
:10058000DF92EF92FF920F931F93CF93DF93EC01D3
:100590008B017A01D5D1811133C0E114F10439F016
:1005A000F70180819181081B190BC80FD91FC12C3D
:1005B000D12C0115110519F18091E80085FD16C0B7
:1005C0008091E8008E778093E80032D4E114F10442
:1005D00049F0F70180819181C80ED91ED182C08275
:1005E00085E00EC0ADD1882321F30AC089918093A4
:1005F000F10001501109FFEFCF1ADF0ADACF80E0D6
:10060000DF91CF911F910F91FF90EF90DF90CF90EE
:10061000089520913601309137012617370748F0A9
:100620006115710539F42091E8002E772093E800D8
:1006300001C0B90140E06115710591F120912F01D0
:10064000222309F440C0253009F43FC02091E8007E
:1006500023FD3DC02091E80022FD2FC02091E8003D
:1006600020FFE9CF2091F20030E0FC01CF016115BD
:10067000710559F02830310540F481918093F100E3
:10068000615071092F5F3F4FF1CF41E028303105B4
:1006900009F040E02091E8002E772093E800CBCFCE
:1006A0004111CCCF0AC080912F01882361F08530A1
:1006B00061F08091E80083FD0AC08091E80082FF2C
:1006C000F2CF80E0089582E0089583E0089581E00C
:1006D00008956115710529F42091E8002B77209386
:1006E000E800FC016115710521F180912F0188233B
:1006F00041F1853041F18091E80083FD20C0809177
:10070000E80082FFEFCF8091F200882331F08091E2
:10071000F100819361507109B1F78091E8008B7706
:100720008093E800DFCF80912F01882351F085303E
:1007300051F08091E80080FFF6CF80E0089581E0DD
:10074000089582E0089583E0089520913601309164
:1007500037012617370748F06115710539F42091E4
:10076000E8002E772093E80001C0B901FC0120E0E9
:100770006115710579F180912F01882309F43DC03D
:10078000853009F43CC08091E80083FD3AC0809137
:10079000E80082FD2CC08091E80080FFE9CF8091C5
:1007A000F20090E06115710559F08830910540F430
:1007B00024912093F1003196615071090196F2CF96
:1007C00021E0089709F020E08091E8008E7780937F
:1007D000E800CECF2111CFCF0AC080912F0188230E
:1007E00061F0853061F08091E80083FD0AC080915E
:1007F000E80082FFF2CF80E0089582E0089583E070
:10080000089581E00895982F953058F59093E90068
:10081000981739F07091EC002091ED005091F000A4
:1008200003C0242F762F50E021FF19C03091EB0038
:100830003E7F3093EB003091ED003D7F3093ED0033
:100840003091EB0031603093EB007093EC0020931B
:10085000ED005093F0002091EE0027FF07C09F5F4E
:10086000D3CF8F708093E90081E0089580E00895F0
:10087000EF92FF920F931F93CF93DF93E62EEC013D
:100880008C010C5F1F4FF12CFE1499F19881992374
:1008900059F1F801208169817A8131973081892F5E
:1008A0008F70853010F080E025C0223010F442E0D7
:1008B00001C046E0E8E0F0E020E0E617F70720F4AA
:1008C0002F5FEE0FFF1FF9CF2295207F422B232FA2
:1008D0002295220F220F207C991F9927991F622FA2
:1008E000692B91DF8823F9F2F39425960B5F1F4F54
:1008F000CBCF81E0DF91CF911F910F91FF90EF90CF
:1009000008958091300187FF11C08091E80082FD39
:1009100005C080912F018111F8CF11C08091E800AE
:100920008B770BC080912F01882349F08091E800DC
:1009300080FFF8CF8091E8008E778093E8000895DB
:100940002091E4003091E50095E64091EC00842F81
:10095000817040FF22C08091E80080FD1CC0809122
:100960002F01882391F0853091F08091EB0085FD77
:1009700010C04091E4005091E5004217530729F35D
:100980009A01915011F784E0089582E0089583E080
:10099000089581E0089580E008954091E80042FFC5
:1009A000DECF089540D042D08091D8008F778093D9
:1009B000D8008091D80080688093D8008091D800BA
:1009C0008F7D8093D80019BC82E089BD09B400FEF8
:1009D000FDCF10922F0110922B0110922D01109239
:1009E0002C0142E060E080E00EDF8091E1008E7F2C
:1009F0008093E1008091E20081608093E200809129
:100A0000E20088608093E2008091E0008E7F809316
:100A1000E0000895E3E6F0E080818E7F808381E04E
:100A200080932E01BFCF1092E20008951092E10052
:100A300008951F920F920FB60F9211242F933F9398
:100A40004F935F936F937F938F939F93AF93BF93D6
:100A5000EF93FF938091E10082FF0AC08091E20052
:100A600082FF06C08091E1008B7F8093E10026DC4D
:100A70008091E10080FF17C08091E20080FF13C0E9
:100A80008091E2008E7F8093E2008091E20080619D
:100A90008093E2008091D80080628093D80019BCD6
:100AA00010922F01FEDB8091E10084FF2EC0809127
:100AB000E20084FF2AC019BC82E089BD09B400FEAF
:100AC000FDCF8091D8008F7D8093D8008091E10088
:100AD0008F7E8093E1008091E2008F7E8093E20020
:100AE0008091E20081608093E20080912B01882355
:100AF00011F084E007C08091E30087FD02C081E02F
:100B000001C083E080932F01CBDB8091E10083FF64
:100B100022C08091E20083FF1EC08091E100877FA8
:100B20008093E10082E080932F0110922B0180914D
:100B3000E1008E7F8093E1008091E2008E7F8093C0
:100B4000E2008091E20080618093E20042E060E098
:100B500080E059DE6CD1FF91EF91BF91AF919F91F1
:100B60008F917F916F915F914F913F912F910F9056
:100B70000FBE0F901F9018951F93CF93DF93CDB7A3
:100B8000DEB7AA970FB6F894DEBF0FBECDBFE0E385
:100B9000F1E088E08E0F9091F10091938E13FBCFDE
:100BA0008ADB8091E80083FF2AC180913001909117
:100BB0003101953009F483C030F49130A9F168F027
:100BC000933091F11CC1983009F4EEC0993009F4CA
:100BD000FAC0963009F013C194C0803821F08238F1
:100BE00009F00DC108C080912C0190912D0199232D
:100BF00089F082600FC0809134018F70853008F0D9
:100C0000FEC08093E9008091EB0085FB882780F986
:100C10001092E9009091E800977F9093E80080930C
:100C2000F1001092F100CBC0282F2D7F09F0E7C012
:100C3000882319F0823061F0E2C080913201813066
:100C400009F0DDC0933009F080E080932D012EC0C3
:100C50008091320181112AC0809134018F702FEF71
:100C6000280F243008F0CBC08093E9002091EB00DE
:100C700020FF1CC0933021F48091EB00806214C0EF
:100C80009091EB0090619093EB0021E030E0A9019E
:100C900002C0440F551F8A95E2F74093EA00109274
:100CA000EA008091EB0088608093EB001092E900ED
:100CB0008091E800877F8093E80023DEA0C0811147
:100CC0009EC0109132011F778091E3008078812BC4
:100CD0008093E3008091E800877F8093E80011DE35
:100CE0008091E80080FFFCCF8091E30080688093D2
:100CF000E300111102C082E001C083E080932F0164
:100D00007EC08058823008F07AC080913201909184
:100D100033018C3D53E0950771F583E08A838AE2C5
:100D200089834FB7F894DE01139620E03EE051E24C
:100D3000E32FF0E050935700E49120FF03C0E295C9
:100D4000EF703F5FEF708E2F90E0EA3010F0C796A3
:100D500001C0C0968D939D932F5F243149F74FBFFB
:100D60008091E800877F8093E8006AE270E0CE011E
:100D700001964FDC13C06091340170913501AE01D2
:100D80004F5F5F4FB9DBBC01892BC9F19091E8003F
:100D9000977F9093E80089819A81D7DC8091E80061
:100DA0008B778093E8002BC0803849F58091E8006C
:100DB000877F8093E80080912B018093F1008091E0
:100DC000E8008E7778CF81111AC09091320192306D
:100DD000B0F48091E800877F8093E80090932B0126
:100DE00090DD80912B01811106C08091E30087FD89
:100DF00002C081E001C084E080932F0153DA80912A
:100E0000E80083FF0AC08091E800877F8093E800B4
:100E10008091EB0080628093EB00AA960FB6F89465
:100E2000DEBF0FBECDBFDF91CF911F910895089512
:100E3000CF9380912F01882399F0C091E900CF7062
:100E40009091EC00892F817090FD80E8C82B109262
:100E5000E9008091E80083FD8FDECF70C093E90048
:100E6000CF9108956F927F928F929F92AF92BF928F
:100E7000CF92DF92EF92FF920F931F93CF93DF9366
:100E800000D01F92CDB7DEB77C01CDB6DEB6809123
:100E9000E80083FF08C1F701808190E020913401D0
:100EA000309135012817390709F0FDC080913101D3
:100EB000833009F49FC030F4813071F0823009F43E
:100EC000D6C0F1C08A3009F4BAC08B3009F4A3C08F
:100ED000893009F0E8C051C080913001813A09F0B1
:100EE000E2C08DB69EB61A821982809132011091AD
:100EF00033018B83F7018085482F50E08DB79EB773
:100F0000841B950B0FB6F8949EBF0FBE8DBFEDB737
:100F1000FEB731965F0160E070E0CF01C6D14FEFC0
:100F2000410F8E010F5F1F4F9501BE016D5F7F4F17
:100F3000C701D0D9F70186819781009721F04085BC
:100F400050E0B501A9D11092E9008091E800877FB7
:100F50008093E8008B8181118093F10069817A810F
:100F6000C50157DB8091E8008B778093E8000FB6CE
:100F7000F8949EBE0FBE8DBE96C080913001813226
:100F800009F091C0ADB6BEB600913601109137019F
:100F900070903201609033018DB79EB7801B910B2A
:100FA0000FB6F8949EBF0FBE8DBFEDB7FEB731965A
:100FB0004F018091E800877F8093E800B801CF015E
:100FC00088DB8091E8008E778093E80021E0711043
:100FD00001C020E030E0021B130B280D391D4FEF3C
:100FE000460D672DC70174DA0FB6F894BEBE0FBE6A
:100FF000ADBE59C080913001813A09F054C0809152
:10100000E800877F8093E8008091E80080FFFCCFB4
:10101000F701818540C080913001813209F043C0E1
:101020008091E800877F8093E8006BDC909132012B
:1010300081E0911101C080E0F701818734C0809187
:101040003001813281F58091E800877F8093E8004C
:1010500058DC8091320190913301882736E09695D3
:1010600087953A95E1F7F701958784871CC08091B1
:101070003001813AC1F48091E800877F8093E800D5
:101080008091E80080FFFCCFF701848595859695D7
:101090008795969587958093F1008091E8008E77EB
:1010A0008093E8002EDC0FB6F894DEBE0FBECDBEF6
:1010B0000F900F900F90DF91CF911F910F91FF90A4
:1010C000EF90DF90CF90BF90AF909F908F907F90E8
:1010D0006F900895FC01399627E0DF011D922A9553
:1010E000E9F721E0FC01218724EF31E035872487EF
:1010F00023E0248361E00196BBCB4F925F926F9215
:101100007F928F929F92AF92BF92CF92DF92EF9297
:10111000FF920F931F93CF93DF9300D01F92CDB711
:10112000DEB77C01ADB6BEB680912F01843009F0E8
:101130008DC08091E4009091E500F7012285338510
:101140002817390709F482C081818F708093E900E4
:101150008091E80085FF7AC08DB69EB6408550E04C
:101160008DB79EB7841B950B0FB6F8949EBF0FBE2C
:101170008DBFEDB7FEB731966F011B821A821982BF
:1011800060E070E0CF0191D08E010F5F1F4F96019C
:1011900040E0BE016D5F7F4FC7019CD8482EF7012C
:1011A00084859585892B51F091E080E026853785EF
:1011B000232B09F090E0092F182F02C000E010E067
:1011C000F701668077806114710489F049815A8142
:1011D000B301C60154D055245394892B09F4512CE2
:1011E000F701408550E0B601C30156D001C0512C33
:1011F00089819A81892BF1F0411004C0511002C0FD
:10120000012BC1F0F70184859585978786878181B9
:101210008F708093E9008B8181118093F100698147
:101220007A8140E050E0C601AAD98091E8008E772B
:101230008093E8008091E4009091E500F7019387A6
:1012400082870FB6F8949EBE0FBE8DBE0FB6F8947F
:10125000BEBE0FBEADBE0F900F900F90DF91CF912D
:101260001F910F91FF90EF90DF90CF90BF90AF90C4
:101270009F908F907F906F905F904F900895FB01AB
:10128000DC0104C08D910190801921F4415050403F
:10129000C8F7881B990B0895FB01DC0102C001907F
:1012A0000D9241505040D8F70895DC0101C06D9374
:1012B00041505040E0F70895F999FECF92BD81BDAD
:1012C000F89A992780B50895262FF999FECF1FBA6D
:1012D00092BD81BD20BD0FB6F894FA9AF99A0FBE5F
:0812E00001960895F894FFCF78
:1012E8000081080000012301080000000000000040
:0C12F80070617373776F72643E00010038
:00000001FF
